:020000040800F2
:100000000000022085680008954B0008994B000805
:10001000CD4D0008CF4D0008D14D00080000000074
:10002000000000000000000000000000D34D0008A8
:10003000D54D000800000000D74D0008D94D00083C
:10004000C9680008C9680008C9680008C9680008CC
:10005000C9680008C9680008C9680008C9680008BC
:10006000E14D0008C9680008C9680008C9680008AF
:10007000C9680008C9680008C9680008C96800089C
:10008000C9680008C9680008714E0008C9680008FE
:10009000C9680008C9680008C9680008C96800087C
:1000A000C9680008C9680008C9680008C96800086C
:1000B000C9680008E54D0008114E0008C96800082D
:1000C000C9680008C9680008C9680008C96800084C
:1000D000C9680008C9680008C9680008C96800083C
:1000E000C9680008C9680008C9680008C96800082C
:1000F000C9680008C9680008C9680008C96800081C
:10010000C9680008CD4E0008C9680008C968000821
:10011000C9680008C9680008C9680008A96700081C
:10012000154E0008C9680008DD670008D54E0008B4
:10013000C9680008C9680008C9680008C9680008DB
:10014000C9680008C9680008C9680008C9680008CB
:10015000C9680008C968000819680008C96800086B
:10016000C9680008C9680008C9680008C9680008AB
:10017000C9680008C9680008C9680008C96800089B
:08018000C9680008C968000805
:1001C0000348044B834202D0034B03B118477047E6
:1001D0003802002038020020000000000548064BCD
:1001E0001B1AD90F01EBA301491002D0034B03B135
:1001F0001847704738020020380200200000000035
:1002000010B5064C237843B9FFF7DAFF044B13B15E
:100210000448AFF300800123237010BD3802002092
:1002200000000000CC68000808B5044B1BB104496D
:100230000448AFF30080BDE80840CFE700000000AD
:100240003C020020CC680008036A2DE9F041846874
:1002500080460E46002B3BD0A3891B0717D5236988
:10026000ABB1013EA36816F8015F013BA360EDB19D
:10027000002B07DAA7699F4222462946404610DC38
:100280000A2D0ED023685A1C22601D70EAE7214611
:10029000404601F0A5FF0028E3D04FF0FF30BDE855
:1002A000F08102F0FDFC0130DCD1F6E7002B09DA29
:1002B00022460A21404602F0F3FC0130EDD00A202C
:1002C000BDE8F08123680A22591C21601A70F6E704
:1002D00000F0F4F8C0E700BF024B01461868FFF7D2
:1002E000B3BF00BF0000002000207047024A03494E
:1002F000034801F001BF00BF50000020D5060008F0
:10030000040000200C4B4168994210B5044601D00E
:1003100000F0E0F9A168094B994202D0204600F0B4
:10032000D9F9E168064B994204D02046BDE8104057
:1003300000F0D0B910BD00BF54020020BC02002064
:1003400024030020002070472DE9F8432A4C2B4954
:10035000DFF8BC90DFF8BC80294FC4F838110025C5
:1003600004230822294604F15C00264EE360C4E918
:100370000055C4E90455A5606566A56100F0C6F89E
:10038000214B63670822294604F1C400C4E90849E7
:10039000C4E90A87C4E91A55C4E91E552567C4F89B
:1003A000CC50C4F88050266300F0B0F8174BC4F866
:1003B000DC30294604F16803082204F59670C4F87D
:1003C0008830C4E92398C4E92576C4E93455C4E9E2
:1003D0003855C4F8D850C4F83451C4F8E85000F087
:1003E00095F804F1D003C4E93D98C4E93F76C4F818
:1003F000F030BDE8F88300BF54020020ED02000891
:10040000293900084D3900080900010012000200D6
:10041000C1380008E9380008F8B5254BD3F8383161
:100420000646002B3CD0234FD7E90134013B04D5CD
:100430001DE05A1C04F1680419D0B4F90C50013BBA
:10044000002DF6D11C4BE360C4E90155C4E9045505
:1004500065662560A5610822294604F15C0000F06C
:1004600055F8C4E90D55C4E912552046F8BD3D685C
:100470000DB12F46D8E74FF4D671304600F0EEFCB0
:10048000044680B10423C0E900530C302946A06023
:100490004FF4D072254600F039F83C602F46C3E790
:1004A000FFF752FFBFE70C2338603360DDE700BF82
:1004B00054020020500000200100FFFF036A03B136
:1004C0007047044B044AD3F838310262002BF7D14D
:1004D0003AE700BF5402002005030008704700BF40
:1004E000704700BF024A0349002001F005BE00BF6B
:1004F00050000020E9020008024A0349002001F0F0
:10050000FBBD00BF5000002045030008830730B545
:1005100047D0541E002A3ED0CAB2034601E0013C37
:1005200039D303F8012B9D07F9D1032C2CD9CDB277
:1005300005EB05250F2C05EB054535D9A4F1100277
:1005400022F00F0C03F1100EE6444FEA121C1A467B
:10055000C2E90055C2E9025510327245F8D10CF1DA
:10056000010214F00C0F03EB021204F00F0C13D075
:10057000ACF1040323F003030433134442F8045B97
:100580009342FBD10CF003042CB1C9B21C4403F814
:10059000011BA342FBD130BD64461346002CF4D1AD
:1005A000F9E703461446C0E71A46A446E0E700BF51
:1005B000B1F90C302DE9F0411E070C4680463DD4C0
:1005C0004A68002A56DDE56A002D34D00022D8F8AA
:1005D0000060C8F8002013F48052216A57D101232B
:1005E0004046A847451C024666D0B4F90C30E56A7F
:1005F000216A580705D56368D21A636B0BB1236C67
:10060000D21A00234046A847431C42D0002363600F
:1006100023692360A389DF0400D56065616BC8F896
:10062000006041B104F14403994202D0404601F018
:1006300085FC002363630020BDE8F0810E69002E75
:10064000F9D09B070D6808BF4B690E6018BF0023E7
:10065000AD1B8B600BE02B463246216AA76A4046F1
:10066000B847B0F1000CA5EB0C05664406DD002D83
:10067000F1DCE0E70A6C002AA5DCDCE7B4F90C3019
:1006800043F04003A3814FF0FF30BDE8F081626D7D
:10069000AFE7D8F80010B4F90C301D29F0D80C4A97
:1006A000CA40D507ECD52269226000226260DA04D4
:1006B000B4D50029B1D0B1E7D8F80030002B94D0E0
:1006C0001D2B01D0162BD9D1C8F80060B3E700BFAD
:1006D000010040200B69B3B110B5044682B008B1E7
:1006E000036A5BB1B1F90C3013B9002002B010BD40
:1006F000204602B0BDE81040FFF75ABF0191FFF756
:10070000DDFE0199EEE70020704700BFB8B138B5B3
:100710000D4A0369156804462BB10DB12B6A53B11C
:10072000B4F90C300BB9002038BD21462846BDE88D
:100730003840FFF73DBF2846FFF7C0FEF0E7034A09
:100740000349044801F0D8BC0000002050000020FC
:10075000D506000804000020014B1868704700BF50
:10076000000000202DE9F04755EC104B84B0002D1F
:100770000D9E894692463DDB0027652E1F7035D0C1
:100780003DDC452E32D0462E5AD1032103AB0193D6
:1007900002AB009345EC104B0C9B4A4600F076FCF4
:1007A000074626F02003462B07EB090805D13B78C6
:1007B000302B39D00C9B1B689844204629460022D8
:1007C000002304F01BF9002838D1039B984506D973
:1007D00030215A1C03921970039B4345F9D30E9A9A
:1007E000DB1B3846136004B0BDE8F08709F101094E
:1007F0000221CBE705F100422D271546BDE7662E05
:10080000C3D003AB019302AB009345EC104B0C9BA0
:100810004A46022100F03AFC672E0746C1D11AF081
:10082000010F1ED1039BDAE7002200232046294650
:1008300004F0E4F8C0B10C9B1B6898444346CEE733
:1008400003AB019302AB009345EC104B0C9B4A4663
:10085000022100F01BFC472E0746A2D11AF0010F1F
:10086000E0D007EB0908A8E70C9AC9F1010313606F
:10087000A2E700BF70B50029BABF49422D232B2340
:10088000092982B0027043702BDD0DF10704194D68
:10089000A446A5FB0123DB0803EB8302A1EB420284
:1008A0008E463032BEF1630F66460CF8012C1946B5
:1008B0000CF1FF3CEDDCB31E3031A3420CF8011CFF
:1008C00000F102050AD2421C13F8011B02F8011FB5
:1008D000A342F9D10DF109039B1B1D44281A02B054
:1008E00070BD30231944051D8370C170281A02B0F1
:1008F00070BD00BFCDCCCCCC2DE9F04F8DB00C46F7
:10090000DDF8588016461F46054603F02DF80368AB
:100910000693184603F0D4F900230A93D8F8003060
:100920000790073323F0070303F10802D4F800A06F
:1009300094F818B0C8F8002093ED007B8DED047B8F
:100940009DED047B53EC172B904623F0004984ED7A
:10095000127B9F4B4FF0FF324046494604F080F82F
:1009600040B99B4B404649464FF0FF3204F05AF8DD
:10097000002871D0DDE9040102460B4604F070F84E
:10098000002840F0298261684B1C4AF480620BF019
:10099000DF0832D0B8F1470F00F022810023226037
:1009A00003930AAB029309AB00939DED040BCDF8C2
:1009B00004B00DF123032846FFF7D4FE8146BBF1B6
:1009C000650F099937D9BBF1660F00F028810A9BA2
:1009D0008B4240F32F810029D4BFC1F102020122D2
:1009E00013442361A1654FF0000A9DF82330002BCA
:1009F0004AD02D2384F8433046E0062100232260AC
:100A0000CDF804B0616003930AAB029309AB009385
:100A10009DED040B0DF123032846FFF7A3FEB8F16B
:100A2000470F8146CBD10999C81C80F2F180ABF108
:100A3000020B5FFA8BFB01395A4604F15000099111
:100A4000FFF718FF0A9A1318012A8246236140F320
:100A5000378101332361C8E7DDE904010022002367
:100A600003F0D6FF10B12D2384F843302AF004029E
:100A7000584B2260584ABBF1470F8CBF91469946AC
:100A8000032323614FF0000A009733460BAA214647
:100A9000284601F0E3FC013023D0236858052BD40D
:100AA00023694A4631462846B847013019D02268A2
:100AB000E0680B9B920719D5984217DD4FF00008AC
:100AC00004F1190904E0E0680B9BC21A42450DDDF0
:100AD00001234A4631462846B847013008F101084B
:100AE000F1D14FF0FF300DB0BDE8F08F9842B8BFA4
:100AF00018460DB0BDE8F08FBBF1650F33D9D4E9CE
:100B000012010022002303F079FF002800F09A80F0
:100B1000324A012331462846B8470130E1D0DDE9A9
:100B2000093A534502DB2268D107C1D5DDE9062326
:100B300031462846B8470130D3D0BAF1010FB6DDAF
:100B40000AF1FF3A4FF0000904F11A0801E0D1451B
:100B5000ADD00123424631462846B847013009F15D
:100B60000109F4D1BDE7DDF82880B8F1010F40F3A9
:100B7000988001234A4631462846B8470130B0D014
:100B8000DDE9062331462846B8470130A9D0D4E92B
:100B900012010022002308F1FF3B03F02FFF002881
:100BA00000F09380B8F1010F40F386804FF0000908
:100BB00004F11A0801E0D9457ED0012342463146AE
:100BC0002846B847013009F10109F4D189E700BF8F
:100BD000FFFFEF7F786E00087C6E0008886E0008CB
:100BE00009B9012161600023226003930AAB0293DB
:100BF00009AB00939DED040BCDF804B00DF1230378
:100C00002846FFF7AFFD09998146C81CFFF60FAFD4
:100C1000636899423FF70BAF4FF0670BD7E60029A7
:100C2000636856DD2161002B00F0858001330B44A1
:100C30002361D7E623682161DB077FF5D3AE4B1C28
:100C40002361CFE6099B002B4ADD0A9BD4F858B0FC
:100C500004935B45A8BF5B46002B984608DD4A46D7
:100C600031462846B84701303FF43BAFD4F858B07E
:100C700028EAE87293456BDD4FF0000A04F11A0888
:100C8000934604E0A36DA3EB0B0252455FDD012305
:100C9000424631462846B84701300AF1010AF1D1EF
:100CA0001FE7D9073FF565AF4A460123314628467D
:100CB000B84701303FF415AF534604F15002F1E656
:100CC0002268D2077FF591AEC3E65B4609F10102C7
:100CD000ECE7002B34D12268D20731D4012380E61F
:100CE000494A012331462846B84701303FF4F9AE5E
:100CF000DDE9093A5AEA030324D0DDE90623314647
:100D00002846B84701303FF4ECAE099B002B78DA57
:100D10004FF0000B04F11A0803E0099B5B425B45AE
:100D20006FDD0123424631462846B84701300BF1BA
:100D3000010BF2D1D5E62268D0077FF553AE75E7F7
:100D400002334EE62268D3077FF5B2AED5E79B4665
:100D5000099B049A9A4202DC2268D00708D5DDE993
:100D6000062331462846B84701303FF4BAAE099B06
:100D7000049AA2EB0B0AD31A9A45A8BF9A46BAF175
:100D8000000F0BDD09EB0B02534631462846B847EE
:100D900001303FF4A6AE099B049AD31A2AEAEA7AF4
:100DA00053457FF784AEDDF810B04FF0000904F131
:100DB0001A0807E0099BABEB0303A3EB0A034B45BF
:100DC0007FF775AE0123424631462846B8470130C9
:100DD00009F10109EED184E6059B0C4A002BBCBF4A
:100DE0002D2384F843302AF004032360084BBBF121
:100DF000470F8CBF91469946032323614FF0000AA9
:100E000042E653464A464DE6886E0008846E000866
:100E1000806E000870B5104E336805460C46B3B1BD
:100E20002146284602F03AFD431C0CD0C41C24F095
:100E30000304A04205D0211A284602F02FFD0130FC
:100E400001D0204670BD4FF0FF34204670BD1946DA
:100E500002F024FD3060E3E7900300202DE9F84321
:100E6000CD1C25F0030508350C2D38BF0C25002DB1
:100E7000064618DBA94216D8DFF8DC8001F0C2FC78
:100E8000D8F80420A2B1144603E0636822467BB17F
:100E90001C4623685B1BF8D40B2B1FD89442636855
:100EA00054D053600CE00C2333600020BDE8F8837D
:100EB00029463046FFF7AEFF431C044619D00560B3
:100EC000304601F0A1FC04F10B00231D20F00700C7
:100ED000C21A1CBF1B1AA350BDE8F88361199442C3
:100EE000256014BF5160C8F80410635163684B60FB
:100EF000E6E7D8F804701FB33C467F68002FFBD1AB
:100F000023683946304604EB030902F0C7FC8145EB
:100F100016D12368ED1A29463046FFF77BFF0130D2
:100F20000ED02368D8F804202B442360536883B183
:100F3000A34203D01A465B689C42FBD10023B0E772
:100F40000C233360304601F05FFCAEE7C8F8043094
:100F5000B6E7C8F80470B3E7900300200000000073
:100F60002DE9F04F03690C69A34283B0C0F28A8077
:100F7000013C01F1140500F1140855F8243058F82B
:100F8000242001339A428E4681464FEA840105EBC4
:100F9000840708EB840AB2FBF3F63AD3CDE90015D7
:100FA0000022AC46404613465CF8041B05681FFA55
:100FB00081FB06FB0B22090C4FEA124B06FB01BB1F
:100FC00092B2A9B2891A19441FFA8BF3C3EB2143D9
:100FD00003EB154389B241EA0341674540F8041B1E
:100FE0004FEA1B424FEA2343DED2DDE9001558F8F1
:100FF000013073B9AAF1040AD04504D307E0D04503
:1010000004F1FF3403D25AF80439002BF7D0C9F8A1
:1010100010407146484602F0C7F900282EDB4146D1
:10102000002255F8040BD1F800C01FFA80FE1FFA09
:101030008CF3A3EB0E031344020CC2EB234202EB2E
:101040001C429BB243EA0243AF4241F8043B4FEAE1
:101050002242E6D258F8242008EB84036AB9043B04
:10106000434504D807E0984504F1FF3403D253F810
:101070000429002AF7D0C9F810400136304603B0E1
:10108000BDE8F08F002003B0BDE8F08F2DE9F04FF0
:10109000C5699DB08DED060B269C049057EC106B36
:1010A00002910B920993002D00F0B183296851B190
:1010B0006A684A60012393408B6001F0A7FE049B9D
:1010C000DB6900221A60B7F10009B4BF01230023D5
:1010D0002360774BBCBF29F00049CDF81C9033EA60
:1010E000090300F0AC809DED067B002251EC170B4C
:1010F00000238DED007B03F081FC804668B1099AE6
:1011000001231360279B13B1279A6A4B13606A4B24
:10111000059305981DB0BDE8F08F9DED000B049878
:101120001AAA1BA902F0AEFA5FEA1955824640F0EE
:101130009C80DDE91A85454405F23243202B40F3BB
:101140009B83C3F1400309FA03F905F2124326FA1F
:1011500003F349EA030003F06FF90123013DA1F114
:10116000F8711293554B002203F028F84AA3D3E9F3
:10117000002303F0DBF94AA3D3E9002303F020F8AE
:10118000064628460F4603F067F947A3D3E9002334
:1011900003F0CCF902460B463046394603F010F80E
:1011A00006460F4603F072FC002204460890002316
:1011B0003046394603F02CFC002840F03683089C6A
:1011C000A8EB0508162C08F1FF3B00F214833C4BFA
:1011D00003EBC403D3E90023DDE9000103F018FCAD
:1011E000002873D0631E0893BBF1000F4FF000037B
:1011F0001193C0F2068300230C93089B002B6BDA3B
:10120000089B0C9A0D93D21A0C925A420023089311
:10121000029B1092092B67D8052BC4BF043B029395
:10122000029BA3F10203CCBF00250125032B00F292
:101230004986DFE813F07C04790470045204099AAB
:10124000C9F3130942F20F7359EA060913601CD15E
:10125000279B002B00F02D861A4B05930833279A05
:10126000059813601DB0BDE8F08FDDE90012C2F3F0
:101270001303084643F07F51CDF84880A5F2FF35AF
:10128000DDF8688041F440116CE7279B002B40F0AB
:1012900000840D4B05933CE761436F63A787D23F02
:1012A000B3C8608B288AC63FFB799F501344D33F55
:1012B0000000F07F896E0008886E00080000F83F8B
:1012C000006900088C6E0008986E0008B8F1000FE5
:1012D00040F3AF8411900C90089B0D939B44002326
:1012E0001093029B092B97D900234FF0FF32CDE9D1
:1012F0000A23012502930E95049BDB6900215960A6
:101300000A9B1393049801F041FD0590002800F01A
:10131000E285049B059ADB691A600A9B0E2B00F29A
:101320000D81002D00F00A810D99002940F35184B0
:10133000AE4B01F00F0203EBC203C805D3E90089ED
:101340004FEA211540F11584A94BDDE90001D3E9ED
:10135000082303F015FACDE9140105F00F05032762
:101360007DB1A34EE90708D540464946D6E900239A
:1013700003F0DCF80137804689466D1006F1080657
:10138000F0D142464B46DDE9140103F0F9F98046FD
:101390008946119B43B1974B00224046494603F0D2
:1013A00037FB002840F01785384603F055F84246D1
:1013B0004B4603F0BBF8904B002202F001FFA1F175
:1013C0005073CDE9140115930A9B002B00F09D800A
:1013D0000D9B19930A9B18934946404603F056FB10
:1013E000189A824B03EBC20313ED027B05468DED89
:1013F000167B03F031F80B4602464946404602F0A0
:10140000DDFE059F0E9B30357E1CECB28046894682
:101410003546002B00F07284DDE916237749002061
:1014200003F0AEF9DDE9142302F0C8FE3C70424639
:101430004B4604460D4603F009FB002840F0BF84EC
:10144000CDF858B0CDF850A0AB460027189DA24665
:101450002AE00137AF4280F20685694B5046594673
:10146000002203F063F8664B002282468B4640461A
:10147000494603F05BF88946804603F007FB0446C3
:1014800002F0EAFF02460B464046494602F096FE4D
:10149000303406F8014B52465B468046894603F0DD
:1014A000B7FA002840F0DC8442464B465149002000
:1014B00002F084FE52465B4603F0AAFA0028C8D028
:1014C000199BDDF850A0059A374603F1010802E0A8
:1014D000974200F0A6843E4617F8013D392BF7D01D
:1014E0000133DBB23B70454674E1384602F0B4FF8D
:1014F00042464B4603F01AF83F4B002202F060FED2
:10150000A1F15073CDE9140115933E4B00224046E2
:10151000494602F053FEDDE9144522462B460646B5
:101520000F4603F093FA002840F08A84304639468B
:10153000224605F1004303F06BFA28BB1B9B002BEE
:10154000C0F292800D9A0E2A00F38E80274B0D9ADE
:1015500003EBC20393ED007B0B9B002B8DED027B15
:1015600019DA0A9B002B16DC0ED1264B0022DDE98E
:10157000020102F0DBFF02460B46DDE9000103F049
:1015800051FA002800F05C840023059E00931F465A
:101590000B9BDD4344E2059B5D1CDDE90278DDE940
:1015A00000013A46434603F0EBF803F06FFA0646B3
:1015B00002F052FF3A46434602F0B8FF02460B469D
:1015C000DDE9000102F0FAFD059A06F1300313701F
:1015D0000A9B012B2F4600F037830125CDF800A090
:1015E000A846DDE902AB99462CE000BF006900087F
:1015F000F06900080000F03F00001C400000E03FE0
:10160000000024400000144052465B462046294614
:1016100003F0B6F803F03AFA064602F01DFF524610
:101620005B4602F083FF08F101080B46024629469B
:10163000204602F0C3FD06F13003C84507F8013B20
:1016400000F000838F4B002202F070FF0022002385
:1016500004460D4603F0D2F90028D5D00D9DDDF8E3
:1016600000A001353E46B5E00E9A002A40F0F18018
:101670000023109E0C9D0E931F4665B1BBF1000F19
:1016800009DD5D450C9A2B46A8BF5B46D21A0C9229
:10169000ED1AABEB030B109B53B10E9B13B1002E55
:1016A00040F00B835146109A049801F099FD824650
:1016B0000498012101F0C8FC089B0090002B40F029
:1016C000D381029B012B40F3E9810120584410F0A3
:1016D0001F0000F0B780C0F12003042B40F3F88115
:1016E0000C9BC0F11C0003440C93054483440C9BE9
:1016F000002B05DD514604981A4601F0E1FD8246B3
:10170000BBF1000F05DD009904985A4601F0D8FDA1
:101710000090119B002B40F08C810A9B002B40F322
:1017200064810E9B002B40F0BC800D9D0135DDF8DF
:101730001480009CDDF828B0DDF81090012607E049
:10174000514600230A22484601F084FB01368246B6
:1017500021465046FFF704FCB34500F1300008F87D
:10176000010BEDDC0A9B002BC8BF1E46059BD8BFB2
:101770000126814603EB060B002451460122049802
:1017800001F09EFD0099824601F00EFE002840F314
:101790000382059A02E0934500F016825E460BF143
:1017A000FF3B16F8013C392BF5D001338BF80030A4
:1017B000DDF810800099404601F028FB57B12CB1AC
:1017C000BC4203D02146404601F020FB0498394634
:1017D00001F01CFB0498514601F018FB0023337004
:1017E000099B1D60279B002B3FF493AC05981E605E
:1017F0001DB0BDE8F08F0123BBF1000F1193BFF6C0
:10180000FAACC8F101030C934FF0000BF5E4102083
:1018100000F0E2FD049B0246D861002800F04D83F1
:10182000C0E90055C0E902554DE4204602F014FE1F
:1018300032463B4603F0E2F800287FF4C0AC631E5A
:101840000893BCE41C230C9A1A440C921D449B443C
:101850004DE7029A012A40F3AA810A9B109A5E1E64
:10186000B242C0F26781002BA2EB060680F2EC8246
:101870000C9B0A9A9D1A6AE1C3F1200306FA03F051
:1018800069E400BF000024403946002304980A227E
:1018900001F0E0FA139B002B074640F3FE820D9601
:1018A0000A93002D05DD394604982A4601F008FD0B
:1018B0000746089B002B40F0E481B846059E0A9C31
:1018C000731E1C44069B03F00103CDE90B43049CEB
:1018D00000995046FFF744FB39468346504601F0D5
:1018E00063FD009905464246204601F07FFDC3682E
:1018F0000BF130090146ABBB0A90504601F054FD94
:101900000A990890204601F081FA089A002A54D1D9
:10191000029B1BB90C9B002B00F0AB82002D3FDB20
:101920000B9BB346B3420BF8019B00F0C1815146BB
:1019300000230A22204601F08DFA474582463946A7
:101940004FF000034FF00A02204630D001F082FA37
:101950004146074600230A22204601F07BFA5E46F4
:101960008046B5E7049801F051FA002D06DB069B8E
:1019700003F00102029B1D432A4329D15146012253
:10198000049801F09DFC0099824601F00DFD0028AD
:1019900040F3F680B9F1390F00F048820BF13109BC
:1019A0000D9D06F8019B3C460135474600E701F0D6
:1019B00051FA5E46074680468AE7002DC0F29D82B6
:1019C000029B1D430C9B1D4300F09782002AA7DD5C
:1019D000B9F1390F00F02A820D9D09F101033C464F
:1019E00006F8013B01354746E2E6029B022B7FF7F2
:1019F00098AE0A9B002B40F02381009904980522A1
:101A000001F028FA01460090504601F0CDFC002874
:101A100040F31681059E0D9D312306F8013B0135EB
:101A20000099049801F0F2F90135002F7FF4CEAE51
:101A3000D0E60099504601F0B7FC0028BFF66DAE25
:101A40005146002304980D9C0A2201F003FA0E9BD4
:101A5000661E8246002B7FF417AF139B002B40F3CA
:101A60000F820D9D0A9362E601461A46049801F022
:101A7000B7FB029B0090012B6FDD00230893009AB7
:101A8000136902EB8303186901F08CFAC0F120009E
:101A90001CE6964B05930333FFF7E1BB069B002B37
:101AA0007FF413AEDDE90612C2F31303002B7FF4BB
:101AB0000CAE8F4B13402BB10C9B01330C930BF1ED
:101AC000010B0123089A0893002A3FF4FEADD6E7E4
:101AD0003FF40DAEC0F13C03B5E601230E930B9B22
:101AE0000D9A134413930133012B1F460A93B8BF79
:101AF0000127049B172FDE6940F2FB81012204239A
:101B00005B0003F11400B842114602F10102F7D95B
:101B10007160FFF7F7BB01230E930B9B002B36DDA3
:101B20001F4613930A93E4E700230E93D7E700239D
:101B30000E93F2E7109B089A1096F31A1A44089233
:101B40000A9B0C9A15461A449B440C920026049852
:101B5000012101F079FA07468FE5069B002B8CD115
:101B6000DDE90601C1F313030A46002BA1D008905A
:101B700085E79DED007B02278DED147BFFF7F0BB21
:101B80007FF40EAF19F0010F7FF404AF08E70123D3
:101B9000CDE90A33FFF7B0BB03D119F0010F7FF491
:101BA000F8AD5E461BF8013D302BFAD000E6129AE4
:101BB000002A00F0078103F233430C9A109E154669
:101BC0001A449B440C92C2E7059A312301351370E5
:101BD000EEE500F0FB800D9A464B554205F00F02F2
:101BE00003EBC203D3E90023DDE9000102F09EFC10
:101BF0002D11CDE9140100F057813F4E002302273B
:101C000080468946EA0709D5D6E900234046494679
:101C100002F08CFC01378046894601236D1006F1E5
:101C20000806EFD1002B7FF4B4ABDDE91489FFF790
:101C3000B0BBC8F1010383460C931190FFF74CBB76
:101C4000059EA5E4DDF800A002460B4602F0B8FAB6
:101C50000D9D02460B46CDE900230135DDE9022347
:101C6000A84602F0F3FE40B9DDE90223DDE90001F8
:101C700002F0C4FE18B1F30701D5059A2BE43E46E5
:101C8000A8E57968049801F081F80546002800F07D
:101C900029813B6902339A0007F10C010C3000F0F6
:101CA00001FB04982946012201F00AFB804605E663
:101CB0000D9D3C46013547465FE5049C394632465A
:101CC000204601F08DFA524601460746204601F0B3
:101CD000D1F951468046204601F098F8109B9B1B95
:101CE000C24610933FF4E4ACDCE400BF986E0008F9
:101CF0000000F07F00690008F0690008DDE91623A4
:101D0000DDE9140102F012FC059B1C70189B012BED
:101D1000CDE90E0100F0BF80189F059B12961F446D
:101D20007E4B00224046494602F000FC0D46044628
:101D300002F0ACFE814602F08FFB09F13009024649
:101D40000B462046294602F039FA06F8019BB742B5
:101D500080468946E4D1129D714B0022DDE90E01D7
:101D600002F02EFA02460B464046494602F06EFE4D
:101D700000286FD1DDE90E236949002002F01EFA28
:101D800002460B464046494602F042FE88B91B9B7C
:101D9000002BFFF66DAC0D9B0E2B3FF769AC614B32
:101DA0000D9A03EBC20393ED007B8DED027BFFF7F1
:101DB000F4BB3E46013F16F8013C302BF9D0199D8B
:101DC000013507E51A9BC3F13603F6E6DDE9008924
:101DD0000227FFF7DEBA0A9B002B3FF486AB139C69
:101DE000002C7FF7ABAB0D9B013B002240464946E0
:101DF00019934A4B02F09AFB80468946781C02F000
:101E00002BFB42464B4602F091FB474B002202F06F
:101E1000D7F9A1F15073CDE9140118941593FFF788
:101E2000DBBA08F101083123FFF75CBB0D9D059A71
:101E3000B34639233C460BF8013B01354746ADE438
:101E4000002300931F46E5E50C9A15461A449B446F
:101E50000C927CE6199B059A03F10108FFF73BBB46
:101E6000DDF850A0ABE7DDF858B0DDF850A0FFF783
:101E700065BBB9F1390FD9D0002D3FF78FAD8FE594
:101E8000029B022B03DC139B0D9D0A934FE4139BD3
:101E90000A930D96ADE537465EE7029B022BF6DC12
:101EA000139B0D960A93FCE4DDE914890227FFF7E2
:101EB00070BA1E4B0593FFF72CB91D4B1D48EF213F
:101EC00000F03EFF0498C36900255D60294600F0DC
:101ED0005DFF0590A8B9184B1648002240F2AF11DB
:101EE00000F02EFF144B13482A4640F2EF2100F079
:101EF00027FF00217160FFF705BA002A3FF73EADCA
:101F00004EE5049B059ADB690B951A604FF0FF3391
:101F1000012213930E920A93FFF710BB0000244096
:101F20000000E03F0069000800001C408C6E0008C3
:101F30009C6E0008B46E0008E06E0008002950D0C6
:101F400038B551F8043C0C1F002BB8BFE418054607
:101F500000F058FC274A13682BB1A3420CD9216822
:101F6000601883422CD0636028461460BDE8384076
:101F700000F04ABCA3420FD81A465B68002BF9D187
:101F800011685018844217D02CD3636054602846DF
:101F9000BDE8384000F038BC11685018A04214D099
:101FA00020D8216860188342EFD118685B68084424
:101FB000C4E900035460EAE723680B441360E6E7D2
:101FC00018685B6808442060CDE720680144501819
:101FD00083421160DBD1D3E900040144C2E900145B
:101FE000D5E770470C232B602846BDE8384000F049
:101FF0000BBC00BF9403002088420ED98B1883428B
:102000000BD900EB020C002A6ED0624613F801CD0A
:1020100002F801CD9942F9D170470F2A0FD8034633
:1020200002F1FF3C002A5FD00CF1010C013B8C4413
:1020300011F8012B03F8012F6145F9D1704740EAEF
:1020400001039B0751D1A2F1100370B501F1200CDF
:1020500023F00F0501F1100E00F11004AC441B0930
:102060005EF8105C44F8105C5EF80C5C44F80C5CA4
:102070005EF8085C44F8085C5EF8045C44F8045CB4
:102080000EF1100EE64504F11004E9D1013312F00F
:102090000C0F01EB031102F00F0400EB031328D027
:1020A000043C24F003064FEA940C1E441C1F8E4689
:1020B0005EF8045B44F8045FB442F9D10CF101040A
:1020C00002F0030203EB840301EB840102F1FF3C05
:1020D0004AB10CF1010C013B8C4411F8012B03F8BF
:1020E000012F6145F9D170BD704702F1FF3C0346F5
:1020F0009AE72246EAE700BF2DE9F84307468846FB
:1021000016464FF00009D6E90154013D10D4A389C9
:10211000012B08D9B4F90E3001332146384602D0DC
:10212000C04749EA0009013D6B1C04F16804EED187
:102130003668002EE7D14846BDE8F883000000006D
:1021400001F0FF01102A2BDB10F0070F08D010F868
:10215000013B013A8B422DD010F0070F42B3F6D16C
:10216000F0B441EA012141EA014122F007047FF085
:1021700000070023F0E80256083C85EA010586EADC
:10218000010685FA47F5A3FA87F586FA47F6A5FA18
:1021900087F68EB9EED1F0BC01F0FF0102F0070224
:1021A00032B110F8013B013A83EA010313B1F8D1CF
:1021B0000020704701387047002D06BF35460338B0
:1021C000073815F0010F07D1013015F4807F02BFE9
:1021D000013015F4C03F0130F0BC0138704700BF3A
:1021E00038B52F4B1B6805460C4613B11A6A002AF6
:1021F0004BD0B4F90C3018071CD5226922B313F068
:10220000010107D0616900204942A060A1613AB193
:10221000002038BD980758BF6169A160002AF7D136
:10222000190658BF1046F4D543F04003A3814FF080
:10223000FF3038BDD9062CD55A0712D4226943F095
:102240000803A381002ADAD103F42071B1F5007FDD
:10225000D5D02146284600F0D9FAB4F90C302269CD
:10226000CDE7616B51B104F14402914204D028469C
:10227000FFF764FEB4F90C3000226263226900218A
:10228000C4E9002123F02403D9E71846FEF716F924
:10229000AFE7092243F040032A60A381C7E700BFEC
:1022A00000000020844641EA000313F003036DD1CF
:1022B000403A41D351F8043B40F8043B51F8043B09
:1022C00040F8043B51F8043B40F8043B51F8043B10
:1022D00040F8043B51F8043B40F8043B51F8043B00
:1022E00040F8043B51F8043B40F8043B51F8043BF0
:1022F00040F8043B51F8043B40F8043B51F8043BE0
:1023000040F8043B51F8043B40F8043B51F8043BCF
:1023100040F8043B51F8043B40F8043B51F8043BBF
:1023200040F8043B51F8043B40F8043B51F8043BAF
:1023300040F8043B403ABDD2303211D351F8043B4F
:1023400040F8043B51F8043B40F8043B51F8043B8F
:1023500040F8043B51F8043B40F8043B103AEDD2FE
:102360000C3205D351F8043B40F8043B043AF9D24F
:10237000043208D0D2071CBF11F8013B00F8013B22
:1023800001D30B8803806046704700BF082A13D32F
:102390008B078DD010F003038AD0C3F10403D21A47
:1023A000DB071CBF11F8013B00F8013B80D331F87B
:1023B000023B20F8023B7BE7043AD9D3013A11F8FB
:1023C000013B00F8013BF9D20B7803704B78437066
:1023D0008B78837060467047024B01461868FEF7A1
:1023E0003DBD00BF00000020024B01461868FFF70A
:1023F000A5BD00BF000000202DE9F041144641B307
:102400000AB306460D4601F0A5FA8442074602D8F3
:10241000B4EB500F13D821463046FEF71FFD80461F
:1024200050B1BC422246294628BF3A46FFF73AFF40
:1024300029463046FFF782FD4046BDE8F081A846B8
:102440004046BDE8F081A046FFF778FD4046BDE874
:10245000F081BDE8F0411146FEF700BD2DE9F84FCF
:1024600092461F460A698B68DDF828909A42B8BFE9
:102470001A46CAF8002091F843300C46064613B1BC
:102480000132CAF80020226891065FD5DAF80030E0
:102490000233CAF80030226812F0060F11461DD12F
:1024A000E1689942D8BF114618DD4FF0000804F1E9
:1024B000190B05E0E568DAF80030ED1A45450CDD4A
:1024C00001235A4639463046C847013008F1010811
:1024D000F0D14FF0FF30BDE8F88F216894F8433019
:1024E000003B18BF01238A060AD5E1185A1C302088
:1024F00081F84300224494F8451082F843100233D7
:1025000004F1430239463046C8470130E1D0236820
:10251000DAF80050216903F00603042BD4E9022005
:102520001BD08A4220DD4FF00008521A90441A3422
:10253000002501E0454517DA012322463946304699
:10254000C847013005F10105F4D1C2E712F0060FCA
:102550000DD0003B18BF0123D2E7401B8A4220EA7E
:10256000E078E2DC0028E2DC0020BDE8F88FE168DA
:10257000DAF800309942D8BF114696DCAEE700BFCA
:102580002DE9F047174684B00A7E0C9D0C4606469E
:10259000984601F1430C002A35D0A2F15803D9B274
:1025A000202969D8202B67D8DFE813F0E600660001
:1025B00066006600660066006600660066006600EB
:1025C0006600AC0070006600660066006600700081
:1025D000660066006600660021008300C600660093
:1025E0006600B6006600830066006600EC002B689B
:1025F00022686169181D286010061B6802D4520603
:1026000000F1E08019600023E1462361CDF80080ED
:102610003B4603AA21463046FFF720FF013020D079
:1026200023694A4639463046C047013019D02368ED
:10263000E068DDF80C909B0718D5484516DD0025AD
:1026400004F1190A04E0E068A0EB0903AB420DDDD8
:102650000123524639463046C047013005F1010595
:10266000F1D14FF0FF3004B0BDE8F0874845B8BF66
:10267000484604B0BDE8F08784F84220012004F108
:1026800042090023206184F84330BFE72A682368A9
:10269000111D1806296002D4590600F195801068B2
:1026A000014600286268C0F2938054484FF00A0E39
:1026B00015E020682B6810F0800F53F8041B02D13E
:1026C000400648BF89B26F2A4C482B6014BF4FF0B8
:1026D0000A0E4FF0080E0023626884F84330002A87
:1026E000A26051DB236823F00403236000294BD14F
:1026F000002A7BD1E146BEF1080F56D0ACEB0903AE
:10270000236183E72B681A6804332B6004F14209C4
:1027100084F842200120B4E72B686268191D296003
:10272000D3F8009000214846FFF70AFD002863D047
:10273000A0EB09006060A4E7236843F02003236056
:1027400078222F4884F845202A6813F0800F52F829
:10275000041B03D113F0400F18BF89B22A60DA07B7
:1027600044BF43F02003236019B9236823F02003FA
:1027700023604FF0100EAEE7582384F845301F4811
:102780002368E1E72368DBE77546E146B1FBF5F333
:1027900005FB131A0A46AA4210F80A1009F8011D8F
:1027A0001946F3D2BEF1080FA8D12368DD07A5D5DD
:1027B000626823699A42A1DC302309F8013C09F1DF
:1027C000FF399BE719801EE7B2F90010084668E759
:1027D0002D20002AA26084F8430002DB23F00403CA
:1027E00023600A2505484942AE46CEE7037884F8BF
:1027F000423004F142097EE7606842E7F46E000867
:10280000086F0008704700BF704700BF70B5B1F98E
:102810000C300C46990796B007D504F14703012206
:10282000C4E90432236016B070BDB4F90E1000295B
:10283000054629DB6A4601F013FB002822DB4FF432
:1028400080612846019EFEF709FB88B3A3892060BA
:1028500043F0800306F47046A381B6F5005F4FF4A1
:102860008063C4E90403DED1B4F90E10284600F0F9
:102870007BF80028D7D0A38923F0030343F001039A
:10288000A381D0E7B4F90C3013F0800F14BF4026B9
:102890004FF4806631462846FEF7E0FA40B1A3893E
:1028A000206043F08003C4E90406A38116B070BD24
:1028B000B4F90C309A05B6D423F0030304F14702AF
:1028C00043F002030121C4E90421A3812260AAE7A5
:1028D00070B50C46B1F90E10002996B015461E468B
:1028E0000FDB6A4601F0BCFA00280ADB019B03F407
:1028F0007043A3F50053B3FA83F34FF480625B098E
:1029000008E0A28912F0800F4FF0000314BF4022AC
:102910004FF48062002033602A6016B070BD00BFA3
:102920000EB400B582B003AB816853F8042B019359
:1029300000F072F802B05DF804EB03B0704700BF1E
:102940000FB400B5074983B004AB086853F8042BF3
:102950008168019300F060F803B05DF804EB04B007
:10296000704700BF0000002038B5074D0022044624
:1029700008462A6002F0E8FA431C00D038BD2B68F4
:10298000002BFBD0236038BD980300209368013BE7
:10299000002B936011DA10B49469A34209DB0A2971
:1029A00007D01368581C1060197008465DF8044B76
:1029B00070475DF8044B00F073B91368581C106041
:1029C00019700846704700BF9BB1F8B5134406461E
:1029D0000F46541E5D1E01E0AC4208D014F8011FE2
:1029E0003A463046FFF7D2FF431CF5D1F8BD002030
:1029F000F8BD0020704700BF936810B514461BB99E
:102A000018460023636010BD00F0B6FF0023A360EA
:102A10000023636010BD00BF2DE9F04FA1B08B46CD
:102A200091461C46049018B1036A002B00F01C81EB
:102A3000BBF80C30180740F19580DBF81030002B04
:102A400000F090800023CA460D9343F22003ADF8B6
:102A500039309AF80030864E07940127002B79D040
:102A6000D14604E019F8013F002B00F08580252BAA
:102A7000F8D1B9EB0A0840F0828099F80030002BB9
:102A800068D000234FF0FF32CDE9092309F1010995
:102A900008930B938DF863301E9305E0089A07FAAC
:102AA00003F31A430892A1464C46052214F8011B71
:102AB0003046FFF745FBA246831B0028EED1089B5A
:102AC000D90644BF20228DF8632099F800101A0718
:102AD00044BF2B228DF863202A2966D1079A1168FA
:102AE000043200290792C0F29A800B9199F80110E4
:102AF0002E2970D05F4C03222046FFF721FB38B10E
:102B0000089B001B4022824013430AF1010A0893EC
:102B10001AF8011B58488DF838100622FFF710FBF1
:102B2000002800F08280554B002B69D007AA009244
:102B3000534B04985A4608A9FDF7DEFE0390039B09
:102B4000013307D00D9B039A13440D939AF800307C
:102B5000002B85D1BBF80C305B060AD40D9821B050
:102B6000BDE8F08F04985946FFF73AFB00283FF480
:102B700069AF4FF0FF30F2E7B9EB0A08EAD00AF18B
:102B8000FF35CDF81490A946049D01E0A0453ED93B
:102B90004C465A4619F8011F2846FFF7F7FE023443
:102BA0000130A4EB0A04F1D1D4E7A1F13002092AE3
:102BB00088BFCA469CD80B9B00E00134217803EB08
:102BC000830302EB4303A1F13002092AF5D92E2930
:102BD0000B93A2468ED19AF801102A292FD1079B78
:102BE0009AF802101A6809920433002A0AF10200C6
:102BF0000793B8BF4FF0FF338246B8BF099379E718
:102C0000079B073323F00703083307939AE70D99CF
:102C1000DDF81490414499F800300D912FE74942B6
:102C200043F002030B91089360E707AA0092144B4C
:102C300004985A4608A9FFF7A3FC03907FE7A1F187
:102C400030020023092A09930AF1010A3FF652AF24
:102C50001AF8011F03EB830302EB4303A1F13002D7
:102C6000092AF5D9099345E7FDF728FCE0E600BFFE
:102C70001C6F0008246F0008286F0008F90800087E
:102C8000C929000810B4054C8446134620685DF835
:102C9000044B0A466146FFF7BFBE00BF000000209C
:102CA000F8B50D461446064610B1036A002B37D01E
:102CB000A389A269A2601A0719D52369BBB122684A
:102CC0006169D31AEDB299422F4620DD0133A16824
:102CD0000139A160511C2160157062699A420DD0C2
:102CE000A389DB0701D50A2D08D03846F8BD214657
:102CF0003046FFF775FA38B92369E0E721463046D8
:102D0000FDF7E8FC0028F0D04FF0FF37EDE7214653
:102D10003046FDF7DFFC0028F6D122680123D6E714
:102D2000FDF7CCFBC4E700BF10B4044C03460A46D1
:102D300020685DF8044B1946FFF7B2BF0000002081
:102D400000B50B4C25681446EE681A4685B003465C
:102D50000D464CB107490095CDE9011430460649AE
:102D600001F06AF800F088FF04490C46F3E700BF61
:102D700000000020306F0008406F0008986C0008C9
:102D800008B513460022FFF7DBFF00BF70B5C66928
:102D900005460C465EB1F368A3B153F82400E8B1D0
:102DA000026843F824200023C0E9033370BD1020DB
:102DB000FFF712FB0646E861E8B10023C0E90033E3
:102DC000C0E9023321220421284600F0E5FFEB6927
:102DD000F060DB68002BE0D1002070BD012101FA1A
:102DE00004F6721D9200284600F0D6FF0028F3D0AA
:102DF000C0E90146D7E7034B034832466B21FFF792
:102E00009FFF00BF9C6E0008706F000870B5C66918
:102E100005460C464EB13CB1EB696268DB6853F87D
:102E20002210216043F8224070BD1020FFF7D4FA31
:102E30000246E86120B1C0E90066C0E90266EAE73F
:102E4000024B03488F21FFF77BFF00BF9C6E0008F9
:102E5000706F00082DE9F0410D6907460E461C46CB
:102E600001F1140E0020DEF800108BB202FB0343C8
:102E70004FEA134C090C02FB01CC01309BB203EB6F
:102E80000C4385424EF8043B4FEA1C44EBDC3CB15A
:102E9000B368AB4207DD06EB850301355C61356144
:102EA0003046BDE8F081716838460131FFF76EFFAA
:102EB000804690B13269023206F10C0192000C306A
:102EC000FFF7F0F9314638464646FFF79FFF06EB1D
:102ED000850301355C613561E2E7034B03484246F7
:102EE000BA21FFF72DFF00BFE06E0008706F0008E9
:102EF0002DE9F8431746284A1E4608330C46092E8A
:102F000082FB03124FEAE3730546C3EB62033ADD2B
:102F10004FF0010C00214FEA4C0C634501F1010117
:102F2000F9DC2846FFF732FF014670B3089B436186
:102F3000092F4FF00103036112DC0A340927BE4256
:102F40000BDDF61B264414F8013B0A22303B2846D1
:102F5000FFF780FFB4420146F5D10846BDE8F8838B
:102F600004F1090804EB0709444614F8013B0A225E
:102F7000303B2846FFF76EFF4C450146F5D1A7F1DF
:102F800008044444DBE70021CBE70A46034B04482E
:102F9000D321FFF7D5FE00BF398EE338E06E00087D
:102FA000706F0008B0F5803F034636BF0304002071
:102FB0001020B3F1807F3CBF1B020830B3F1805F6B
:102FC0003CBF1B010430B3F1804F03D3002B06DB61
:102FD000013070479B0003D45B0003D4202070476E
:102FE0000230704703307047036813F00702014650
:102FF00007D0DA071FD4980721D55B080B600120A2
:10300000704798B2A0B11046DAB20AB908301B0A6C
:103010001A0704BF1B0904309A0704BF9B0802303B
:10302000DA0703D45B0800F1010006D00B6070479B
:103030001B0C1020E8E700207047202070479B08F9
:103040000B600220704700BF10B50C460121FFF74E
:103050009DFE024618B10123C0E9043410BD034BA4
:10306000034840F24511FFF76BFE00BFE06E000819
:10307000706F00082DE9F04FD1F810801569A84550
:1030800085B00E46924605DB2A46534645468A469B
:1030900090461E46DAF80830DAF8041005EB08040A
:1030A000A342B8BF0131FFF771FE8446002800F04B
:1030B0008B8000F1140707EB840E774505D23B4661
:1030C000002243F8042B9E45FBD8143606EB8808F3
:1030D0000AF11409464509EB850566D2A5EB0A03FA
:1030E000153B23F003030AF1150A043355452CBFA1
:1030F0009B464FF0040BCDF808E00394AE46E24641
:1031000005E0090C2AD1B04507F104074AD956F861
:10311000041B8DB2002DF4D0CC463C460023019612
:103120005CF8040B216886B28AB2000C05FB06220B
:10313000090C1A4405FB001101EB124192B242EA5C
:103140000142E64544F8042B4FEA1143E8D8019EBA
:1031500047F80B3056F8041C090CD4D03B68002209
:1031600048461D463C469446028801FB02C202EBDB
:1031700015429BB243EA024344F8043B50F8043B37
:1031800025684FEA134CABB201FB0C3303EB12433F
:1031900070454FEA134CE7D3B04547F80B3007F1C1
:1031A0000407B4D8DDE902E4D446002C02DC05E0D3
:1031B000013C03D05EF8043D002BF9D06046CCF80A
:1031C000104005B0BDE8F08F034B044862464FF451
:1031D000B171FFF7B5FD00BFE06E0008706F000829
:1031E0002DE9F04312F0030383B0144607462DD1B6
:1031F0000E46A4101CD0FA698AB39568002D39D008
:10320000E3074FF0000906D4641011D0286898B184
:103210000546E307F8D531462A463846FFF72AFF28
:10322000314680463846FFF7F1FD64104646EDD141
:10323000304603B0BDE8F0832A4629463846FFF7FA
:1032400019FF2860C0F800900546E2E7013B184AE4
:1032500052F823200023FFF7FDFD0646C9E71020A2
:10326000FFF7BAF80246F861E0B10023C0E9003385
:10327000C0E90233012138460192FFF787FD019A28
:10328000054640B1012340F27121C0E90431002319
:1032900090600360B4E7074B07482A4640F24511A7
:1032A000FFF74EFD054B044840F2B311FFF748FD10
:1032B000F0680008E06E0008706F00089C6E00085F
:1032C0002DE9F0470D4691462B69496803EB6218DA
:1032D000AB6808F101049C4207464FEA621A04DD1C
:1032E0005B009C4201F10101FADC3846FFF74EFD1C
:1032F000064600284DD0BAF1000F00F114000EDD93
:103300000AF105024FEA820C034606EB8202002115
:1033100043F8041B9342FBD1ACF114031844296910
:1033200005F1140319F01F0903EB810129D0C9F13C
:10333000200E84464FF0000A1A6802FA09F242EAA7
:103340000A024CF8042B53F8042B994222FA0EFA85
:10335000F2D84B1B153B23F00303043305F1150290
:10336000914238BF042340F803A0BAF1000F00D106
:103370004446384634612946FFF748FD3046BDE8EB
:10338000F087043853F8042B40F8042F9942F9D8F9
:10339000EEE7034B034832464FF4EF71FFF7D0FCE2
:1033A000E06E0008706F00080B6984460069C01A5F
:1033B00016D10CF1140C14310CEB830210B401EB98
:1033C000830301E0944508D252F8044D53F8041DDC
:1033D0008C42F7D005D24FF0FF305DF8044B7047B8
:1033E000704701205DF8044B704700BF2DE9F04F96
:1033F00015460A692B69D21A002A83B0884640F024
:10340000878001F1140605F1140101EB830106EB3D
:10341000830301E09E427ED253F8044D51F8042DFF
:103420009442F7D075D32B460024454698466968E8
:10343000FFF7ACFC8146002800F089802E69C4604B
:10344000D8F8100005F1140B08F1140E09F1140A54
:1034500005F110020EEB80000BEB860157464FF092
:10346000000CCDF804B05EF8044B52F8045F1FFA6C
:1034700084FBABB2A3EB0B03240C6344C4EB1544F5
:1034800004EB23449BB243EA0443704547F8043BF2
:103490004FEA244CE7D8A0EB080208F11508404594
:1034A000A2F1150234BF0020012092080028DDF8A7
:1034B00004B002F101044FEA840408BF04240BEBBA
:1034C0000405A942544433D92746284650F8043B02
:1034D0001CFA83FE1A0C634402EB2E429BB243EAB1
:1034E0000243814247F8043B4FEA224CEED80139AF
:1034F000491B21F003010C4423B954F8043D013E5B
:10350000002BFAD04846C9F8106003B0BDE8F08F30
:1035100089DA01248BE70021FFF738FC814678B176
:1035200001220023C0E90423484603B0BDE8F08F20
:1035300000284FEA820208BF00220AEB0204DBE700
:10354000064B07484A4640F23721FFF7F9FB034B89
:1035500003484A4640F24521FFF7F2FBE06E0008BF
:10356000706F000882B08DED000B164B019A13406E
:10357000A3F15073002B06DD00221946104641ECE2
:10358000100B02B070475B42B3F1A07F4FEA2352A9
:1035900009DA4FF40023134100221946104641EC8A
:1035A000100B02B07047A2F114031E2BDABF4FF0CC
:1035B0000042DA40012200231946104641EC100B6C
:1035C00002B070470000F07FF8B5046900F11406FE
:1035D00006EB8404271F54F8045C2846FFF7E2FC3E
:1035E000C0F120030A280B6033DDBE42A0F10B01BD
:1035F00019D254F8080C21B3C1F120078D4020FAEC
:1036000007F215438840A4F1080145F07F538E422C
:1036100043F4401319D254F80C1CF94008430246F5
:1036200043EC102BF8BD0B280AD005FA01F141F04C
:103630007F53002043F44013024643EC102BF8BDA7
:10364000002045F07F5343F44013024643EC102B17
:10365000F8BDC0F10B0C25FA0CF1BE4241F07F53CE
:1036600038BF54F8081C00F1150034BF21FA0CF1E2
:10367000002105FA00F0084343F44013024643ECEE
:10368000102BF8BD2DE9F0430E4683B0012159EC13
:10369000108B1546FFF77AFB0446002846D0C9F385
:1036A0000A57C9F313030FB143F480130193B8F120
:1036B000000313D101A8FFF797FC019B636101226E
:1036C000203022610FB3A7F233470744C0F1350021
:1036D00037602860204603B0BDE8F0836846009359
:1036E000FFF782FC019BF8B10099C0F1200203FAB8
:1036F00002F2C3400A430193002B62610CBF012216
:103700000222A3612261002FDDD104EB8203A0F22B
:10371000324030601869FFF745FCC0EB421028606A
:10372000204603B0BDE8F083009AE5E7034B044868
:10373000224640F20F31FFF703FB00BFE06E0008A6
:10374000706F00082DE9F04383B0884669468146D2
:10375000FFF73AFF01A9404655EC104BFFF734FF45
:10376000D8F81030D9F81020D21ADDE900315B1AF0
:1037700003EB4213002B59EC108B0DDD05EB0357C7
:103780003D4642464B462046294600F0F9FF41ECB3
:10379000100B03B0BDE8F083C3EB033309EB035117
:1037A0008946EEE7172870B506460CDD0A490B4D31
:1037B0000020002422462B4600F0B8FE013EF9D13D
:1037C00041EC100B70BD064B03EBC003D3E90401C1
:1037D00041EC100B70BD00BF0000F03F0000244022
:1037E000F06800080139491101F1010C116902F179
:1037F000140303EB81018B4200EB8C0C16D210B545
:10380000A0F1040E53F8044B4EF8044F9942F9D836
:103810008B1A153B23F0030304331844844504D961
:10382000002340F8043B8445FBD810BD844505D9EE
:10383000002340F8043B8445FBD87047704700BF25
:1038400003694A11934200F1140009DA00EB830383
:1038500002E053F8042DAAB98342FAD80020704739
:1038600000EB8203F8DD11F01F01F5D010B450F821
:10387000224024FA01F28A40944209D001205DF8E6
:10388000044B70470120704753F8042D002AF5D1EE
:103890008342F9D800205DF8044B704738B5074DD6
:1038A0000022044608462A6001F052FB431C00D067
:1038B00038BD2B68002BFBD0236038BD9803002057
:1038C00010B50C46B1F90E1000F092FA002803DB97
:1038D000636D0344636510BDA38923F48053A38102
:1038E00010BD00BF002070472DE9F0410C46B1F932
:1038F0000C101F46CB05054616460BD421F480510B
:10390000A1813B46B4F90E1032462846BDE8F0418D
:1039100000F0D2BAB4F90E100223002200F0B6FA79
:10392000B4F90C10EAE700BF10B50C46B1F90E105F
:1039300000F0ACFAB4F90C30421C0EBF23F48053F3
:1039400043F480536065A38110BD00BFB1F90E1030
:1039500000F09AB951F8043C181F002BBCBF0B585B
:10396000C0187047F0307047004870474C01002085
:10397000004870474C0100209368002B00F0F8804D
:103980002DE9F04FB1F90CC01CF0080F83B0904640
:1039900081460C4631D00B697BB31CF00207D8F886
:1039A000006038D00027D4F828B0216ADFF8C4A21C
:1039B0003D4655452B463A4628BF53464846C5B175
:1039C000D847002840F3CA80D8F808301B1A0744AB
:1039D0002D1AC8F80830002B00F0B68055452B464C
:1039E000D4F828B0216A28BF53463A464846002DED
:1039F000E6D1D6E900750836DBE721464846FEF7F2
:103A0000EFFB002840F0AF80B4F90CC0D8F800609C
:103A10001CF00207C6D11CF0010A63D12368A1681B
:103A2000574618468B46002F58D01CF4007F00F0F4
:103A3000B580B9420A4600F2E1801CF4906F2FD0A5
:103A4000216962695D1A02EB420202EBD2726B1CC1
:103A500052103B44934292BF93469B461A461CF435
:103A6000806F00F0EA8011464846FDF7F7F900281C
:103A700000F0F9802A4621690090FEF713FCA28924
:103A8000009B22F4906242F08002A2815819ABEBB5
:103A90000505C4F814B02361A5602060BB463A4612
:103AA00051460092FEF7A8FAA1682368009AA1EB9C
:103AB0000B011A443D46A16022600027D8F8083067
:103AC0005B1BAA44C8F80830002B3DD02368A168CE
:103AD000B4F90CC018468B46002FA6D1D6E900A732
:103AE00008369EE73846BB463D460097002D41D03C
:103AF000002846D0009A2068A168D4E90473AA423D
:103B000028BF2A46B84204D901EB030A524500F304
:103B10008580934275DC216AA76A5A464846B847B1
:103B2000B0F1000A1ADD009BB3EB0A0300930FD03B
:103B30000120D8F80830A3EB0A03D344A5EB0A050B
:103B4000C8F80830002BD1D1002003B0BDE8F08FB9
:103B500021464846FCF7BEFD0028EAD0B4F90C30F7
:103B600043F04003A3814FF0FF3003B0BDE8F08F76
:103B700000207047756833460836002DFAD0D3F818
:103B800000B02A460A215846FEF7DAFA002867D024
:103B90000130A0EB0B0300931A46ACE722699A426E
:103BA00014D36269BA4211D86FF00043BB4228BFF8
:103BB0003B46A56A93FBF2F3216A02FB03F34846F6
:103BC0005246A847051EC9DD7F1B77E7B94228BFCB
:103BD00039460D4618460A465146FEF70DFAA168C9
:103BE0002368491B2B44A16023600029ECD12146A6
:103BF0004846FCF76FFD0028E6D0AFE7BB463A46E3
:103C00004EE759460192FEF7F7F9019AA3689B1A0D
:103C1000A360236813442360924684E759465246C2
:103C2000FEF7EAF923685344236021464846FCF72F
:103C300051FD00283FF477AF90E74846FEF7DCFBE4
:103C4000034600287FF422AF21694846FEF776F943
:103C5000B4F90C300C22C9F8002023F080037FE770
:103C60006A1C009247E70C22B4F90C30C9F8002016
:103C700076E700BF00FCFF7F08B5062000F0E6F9FC
:103C8000012001F035F900BF38B5074D0022044688
:103C900008462A6001F050F9431C00D038BD2B685B
:103CA000002BFBD0236038BD9803002000000000EB
:103CB0000000000000000000000000000000000004
:103CC00030B490F800F020F007016FF0000C10F015
:103CD000070491F820F040F048804FF000046FF0A6
:103CE0000700D1E9002391F840F000F1080082FAC2
:103CF0004CF2A4FA8CF283FA4CF3A2FA8CF34BBB8D
:103D0000D1E9022382FA4CF200F10800A4FA8CF205
:103D100083FA4CF3A2FA8CF3E3B9D1E9042382FAD3
:103D20004CF200F10800A4FA8CF283FA4CF3A2FAE8
:103D30008CF37BB9D1E9062301F1200182FA4CF220
:103D400000F10800A4FA8CF283FA4CF3A2FA8CF387
:103D5000002BC6D0002A04BF04301A4612BAB2FAA9
:103D600082F200EBD20030BC7047D1E9002304F0AE
:103D70000305C4F100004FEAC50514F0040F91F8E3
:103D800040F00CFA05F562EA05021CBF63EA050380
:103D900062464FF00004AAE770B5A1FB025454B983
:103DA0002946FDF75BF8064618B12A462146FCF77E
:103DB000ADFB304670BD0C2202600026F9E700BF63
:103DC00010B4034CD4F8E040A4465DF8044B6047BF
:103DD0005C00002049B1FF2A02D80A700120704718
:103DE0008A2303604FF0FF3070470846704700BFDA
:103DF00038B50C46084D8446114620461A46002325
:103E00002B60644601F07AF8431C00D038BD2B6863
:103E1000002BFBD0236038BD980300200CB400B504
:103E200083B004AB53F8042B0193FEF7F5FD03B008
:103E30005DF804EB02B070470EB410B583B005AB6B
:103E4000064C53F8042B019301462068FEF7E4FD6D
:103E500003B0BDE8104003B0704700BF0000002071
:103E600070B50C46084D03460026204611461C46F8
:103E70002E6001F064F8431C00D070BD2B68002B4D
:103E8000FBD0236070BD00BF9803002038B50C46FE
:103E9000084D8446114620461A4600232B6064468E
:103EA00001F054F8431C00D038BD2B68002BFBD028
:103EB000236038BD9803002038B50C46084D844671
:103EC000114620461A4600232B60644601F026F86E
:103ED000431C00D038BD2B68002BFBD0236038BDBD
:103EE0009803002010B4034CD4F8E440A4465DF8D5
:103EF000044B60475C00002082B049B15AB16BB1FD
:103F000013780B601278101E18BF012002B07047A2
:103F100001A9002AF3D1104602B070476FF00100EA
:103F2000F4E700BF38B5C46B0CB1002038BD802168
:103F30000546FCF793FF0246E86330B1031F7C326D
:103F400043F8044F9342FBD1EFE74FF0FF3038BD09
:103F500030B51F2983B0054608D8C36B0C4653B152
:103F600053F8240043F8242003B030BD1623036027
:103F70004FF0FF30F8E780210192FCF76FFF019AC4
:103F8000E86303460028F3D0011F00F17C05002000
:103F900041F8040FA942FBD1E2E700BF1F2938B561
:103FA00005461ED8C26B0C466AB152F8213053B197
:103FB000012B06D0591C10D0002142F824102046B5
:103FC0009847002038BD284600F0F2F82246014606
:103FD0002846BDE8384000F0D5B81623036001201C
:103FE00038BD162303604FF0FF3038BD1F292AD893
:103FF00038B5C36B0C460546A3B153F8242003EB38
:1040000084034AB1511C0BD0012A07D00025204659
:104010001D609047284638BD012038BD032038BDBB
:10402000022038BD8021FCF719FF0346E86338B150
:10403000021F00217C3042F8041F8242FBD1DCE7E2
:104040004FF0FF3038BD4FF0FF30704738B5134B9D
:104050001F281D681DD8EA6B044662B152F8203053
:104060004BB1012B05D0591C0FD0002142F8201074
:104070009847002038BD284600F09AF822460146AD
:104080002846BDE8384000F07DB816232B6001209B
:1040900038BD16232B604FF0FF3038BD00000020E4
:1040A000114B1F2870B51E6808D8F36B04460D46E7
:1040B0004BB153F8240043F8245070BD16233360ED
:1040C0004FF0FF3070BD80213046FCF7C7FE03463D
:1040D000F0630028F4D0021F00217C3042F8041F56
:1040E0008242FBD1E5E700BF0000002038B50B4B52
:1040F0001D68EC6B0CB1002038BD80212846FCF710
:10410000ADFEE86338B1031F00F17C0243F8044FB1
:104110009342FBD1EFE74FF0FF3038BD00000020A5
:1041200038B5174B1F281D6826D80446E86BA0B188
:1041300050F8243000EB84004BB15A1C0BD0012BFB
:1041400007D00025056020469847284638BD012045
:1041500038BD032038BD022038BD80212846FCF739
:104160007DFEE86340B1031F00F17C01002243F8AB
:10417000042F8B42FBD1DBE74FF0FF3038BD00BF8F
:104180000000002070B50C46084D0346002620466E
:1041900011461C462E6000F0A3FE431C00D070BDEB
:1041A0002B68002BFBD0236070BD00BF980300205C
:1041B00000F094BE81F0004102E000BF83F00043B4
:1041C00030B54FEA41044FEA430594EA050F08BFB2
:1041D00090EA020F1FBF54EA000C55EA020C7FEA76
:1041E000645C7FEA655C00F0E2804FEA5454D4EBF3
:1041F0005555B8BF6D420CDD2C4480EA020281EABD
:10420000030382EA000083EA010180EA020281EAF4
:104210000303362D88BF30BD11F0004F4FEA013146
:104220004FF4801C4CEA113102D0404261EB410155
:1042300013F0004F4FEA03334CEA133302D05242DB
:1042400063EB430394EA050F00F0A780A4F1010497
:10425000D5F1200E0DDB02FA0EFC22FA05F28018D1
:1042600041F1000103FA0EF2801843FA05F35941B7
:104270000EE0A5F120050EF1200E012A03FA0EFC36
:1042800028BF4CF0020C43FA05F3C01851EBE37160
:1042900001F0004507D54FF0000EDCF1000C7EEB7D
:1042A00000006EEB0101B1F5801F1BD3B1F5001FBB
:1042B0000CD349085FEA30004FEA3C0C04F10104DA
:1042C0004FEA445212F5800F80F09A80BCF1004F03
:1042D00008BF5FEA500C50F1000041EB045141EA85
:1042E000050130BD5FEA4C0C404141EB0101013C4E
:1042F00028BFB1F5801FE9D291F0000F04BF01463D
:104300000020B1FA81F308BF2033A3F10B03B3F10E
:1043100020020CDA0C3208DD02F1140CC2F10C029E
:1043200001FA0CF021FA02F10CE002F11402D8BFFC
:10433000C2F1200C01FA02F120FA0CFCDCBF41EAC8
:104340000C019040E41AA2BF01EB0451294330BD97
:104350006FEA04041F3C1CDA0C340EDC04F1140474
:10436000C4F1200220FA04F001FA02F340EA03004B
:1043700021FA04F345EA030130BDC4F10C04C4F191
:10438000200220FA02F001FA04F340EA0300294671
:1043900030BD21FA04F0294630BD94F0000F83F4BB
:1043A000801306BF81F480110134013D4EE77FEA9E
:1043B000645C18BF7FEA655C29D094EA050F08BFEA
:1043C00090EA020F05D054EA000C04BF19461046CB
:1043D00030BD91EA030F1EBF0021002030BD5FEA0F
:1043E000545C05D14000494128BF41F0004130BD37
:1043F00014F580043CBF01F5801130BD01F000458B
:1044000045F0FE4141F470014FF0000030BD7FEAFD
:10441000645C1ABF194610467FEA655C1CBF0B46F8
:10442000024650EA013406BF52EA033591EA030F0F
:1044300041F4002130BD00BF90F0000F04BF002107
:10444000704730B54FF4806404F132044FF000053A
:104450004FF0000150E700BF90F0000F04BF0021B3
:10446000704730B54FF4806404F1320410F0004519
:1044700048BF40424FF000013EE700BF42004FEA14
:10448000E2014FEA31014FEA02701FBF12F07F4391
:1044900093F07F4F81F06051704732F07F4208BF48
:1044A000704793F07F4F04BF41F40021704730B54F
:1044B0004FF4607401F0004521F000411CE700BF9B
:1044C00050EA010208BF704730B54FF000050AE01E
:1044D00050EA010208BF704730B511F0004502D51F
:1044E000404261EB41014FF4806404F132045FEA21
:1044F000915C3FF4D8AE4FF003025FEADC0C18BFCA
:1045000003325FEADC0C18BF033202EBDC02C2F1BB
:10451000200300FA03FC20FA02F001FA03FE40EA4D
:104520000E0021FA02F11444BDE600BF70B54FF051
:10453000FF0C4CF4E06C1CEA11541DBF1CEA13552F
:1045400094EA0C0F95EA0C0F00F0DEF82C4481EA97
:10455000030621EA4C5123EA4C5350EA013518BFB7
:1045600052EA033541F4801143F4801338D0A0FBA4
:1045700002CE4FF00005E1FB02E506F00042E0FB51
:1045800003E54FF00006E1FB03569CF0000F18BF57
:104590004EF0010EA4F1FF04B6F5007F64F54074FF
:1045A00004D25FEA4E0E6D4146EB060642EAC62192
:1045B00041EA55514FEAC52040EA5E504FEACE2EFF
:1045C000B4F1FD0C88BFBCF5E06F1ED8BEF1004F02
:1045D00008BF5FEA500E50F1000041EB045170BD7E
:1045E00006F0004646EA010140EA020081EA0301C2
:1045F000B4EB5C04C2BFD4EB0C0541EA045170BDBE
:1046000041F480114FF0000E013C00F3AB8014F137
:10461000360FDEBF002001F0004170BDC4F1000480
:10462000203C35DA0C341BDC04F11404C4F1200501
:1046300000FA05F320FA04F001FA05F240EA02005C
:1046400001F0004221F0004110EBD37021FA04F692
:1046500042EB06015EEA430E08BF20EAD37070BD4C
:10466000C4F10C04C4F1200500FA04F320FA05F0AB
:1046700001FA04F240EA020001F0004110EBD370AD
:1046800041F100015EEA430E08BF20EAD37070BD1D
:10469000C4F1200500FA05F24EEA020E20FA04F3F6
:1046A00001FA05F243EA020321FA04F001F00041A5
:1046B00021FA04F220EA020000EBD3705EEA430E16
:1046C00008BF20EAD37070BD94F0000F0FD101F045
:1046D0000046400041EB010111F4801F08BF013C7E
:1046E000F7D041EA060195F0000F18BF704703F0BC
:1046F0000046520043EB030313F4801F08BF013D43
:10470000F7D043EA0603704794EA0C0F0CEA1355FE
:1047100018BF95EA0C0F0CD050EA410618BF52EAB8
:104720004306D1D181EA030101F000414FF00000BE
:1047300070BD50EA410606BF1046194652EA4306CC
:1047400019D094EA0C0F02D150EA013613D195EA40
:104750000C0F05D152EA03361CBF104619460AD188
:1047600081EA030101F0004141F0FE4141F4700192
:104770004FF0000070BD41F0FE4141F4780170BD82
:1047800070B54FF0FF0C4CF4E06C1CEA11541DBFE7
:104790001CEA135594EA0C0F95EA0C0F00F0A7F8E9
:1047A000A4EB050481EA030E52EA03354FEA013116
:1047B00000F088804FEA03334FF0805545EA131329
:1047C00043EA12634FEA022245EA111545EA1065F1
:1047D0004FEA00260EF000419D4208BF964244F188
:1047E000FD0404F5407402D25B084FEA3202B61AA7
:1047F00065EB03055B084FEA32024FF480104FF47B
:10480000002CB6EB020E75EB030E22BFB61A7546EE
:1048100040EA0C005B084FEA3202B6EB020E75EB81
:10482000030E22BFB61A754640EA5C005B084FEAE9
:104830003202B6EB020E75EB030E22BFB61A7546B6
:1048400040EA9C005B084FEA3202B6EB020E75EBC1
:10485000030E22BFB61A754640EADC0055EA060E82
:1048600018D04FEA051545EA16754FEA06164FEAC5
:10487000C30343EA52734FEAC2025FEA1C1CC0D171
:1048800011F4801F0BD141EA00014FF000004FF0FE
:10489000004CB6E711F4801F04BF01430020B4F1BF
:1048A000FD0C88BFBCF5E06F3FF6AFAEB5EB030C77
:1048B00004BFB6EB020C5FEA500C50F1000041EB74
:1048C000045170BD0EF0004E4EEA113114EB5C0441
:1048D000C2BFD4EB0C0541EA045170BD41F4801114
:1048E0004FF0000E013C90E645EA060E8DE60CEA1C
:1048F000135594EA0C0F08BF95EA0C0F3FF43BAF39
:1049000094EA0C0F0AD150EA01347FF434AF95EAEF
:104910000C0F7FF425AF104619462CE795EA0C0FD3
:1049200006D152EA03353FF4FDAE1046194622E7A0
:1049300050EA410618BF52EA43067FF4C5AE50EA7A
:1049400041047FF40DAF52EA43057FF4EBAE12E76A
:104950004FF0FF3C06E000BF4FF0010C02E000BF4B
:104960004FF0010C4DF804CD4FEA410C7FEA6C5C2E
:104970004FEA430C18BF7FEA6C5C1BD001B050EAD1
:10498000410C0CBF52EA430C91EA030F02BF90EABC
:10499000020F0020704710F1000F91EA030F58BF7B
:1049A000994208BF90422CBFD8176FEAE37040F0DD
:1049B000010070474FEA410C7FEA6C5C02D150EA7B
:1049C000013C07D14FEA430C7FEA6C5CD6D152EA36
:1049D000033CD3D05DF8040B704700BF84461046FB
:1049E00062468C461946634600E000BF01B5FFF7FA
:1049F000B7FF002848BF10F1000F01BD4DF808EDCA
:104A0000FFF7F4FF0CBF012000205DF808FB00BF9A
:104A10004DF808EDFFF7EAFF34BF012000205DF8F4
:104A200008FB00BF4DF808EDFFF7E0FF94BF012041
:104A300000205DF808FB00BF4DF808EDFFF7CEFF42
:104A400094BF012000205DF808FB00BF4DF808ED81
:104A5000FFF7C4FF34BF012000205DF808FB00BF52
:104A60004FEA410C7FEA6C5C02D150EA013C0AD16A
:104A70004FEA430C7FEA6C5C02D152EA033C02D15C
:104A80004FF0000070474FF0010070474FEA4102BD
:104A900012F5001215D211D56FF47873B3EB625290
:104AA00012D94FEAC12343F0004343EA505311F0B7
:104AB000004F23FA02F018BF404270474FF0000049
:104AC000704750EA013005D111F0004008BF6FF087
:104AD000004070474FF00000704700BF30B599B0FC
:104AE00001F0AEFA01F0CAFA01F09EFB01F074FA8F
:104AF00001F03CFE2148FBF7EFFB01F019F900241F
:104B00000D211F4800F0D1FA642001F051F921462F
:104B10001C48FDF715FF00210CA801F063FABDF950
:104B200030501198FFF7AAFC02460B46294616485A
:104B3000FDF706FF0121684601F054FA0DF1300C33
:104B4000EE46BEE80F00ACE80F00BEE80F00ACE890
:104B50000F009EE80F008CE80F00BDF9305011984F
:104B6000FFF78CFC02460B4629460848FDF7E8FE95
:104B70000748FBF7B1FB0134C2E700BF1C6B00081C
:104B8000000802402C6B00083C6B00086C6B0008AE
:104B9000B46C0008704700002DE9F04F87B01EF09C
:104BA000040F0CBFEFF30883EFF309831A461D6867
:104BB000D5F804B0D5F808A0D5F80C90D5F8108039
:104BC0006B690193AB690293EB6903935F4B9C6A3A
:104BD000DE6A1A6B0492DA6B05929B6A13F0800FFF
:104BE0006BD05A4B5F6B5A48FBF776FB2946594806
:104BF000FDF7A6FE59465848FDF7A2FE5146574814
:104C0000FDF79EFE49465648FDF79AFE4146554837
:104C1000FDF796FE01995448FDF792FE029953481C
:104C2000FDF78EFE03995248FDF78AFE5148FBF7C7
:104C300053FB21465048FDF783FE31464F48FDF7B0
:104C40007FFE04994E48FDF77BFE05994D48FDF720
:104C500077FEB7F1FF3F3BD14B48FBF73DFB14F02C
:104C6000010F3AD114F0020F3BD114F0040F3CD1E4
:104C700014F0080F3DD114F4807F3ED114F4007F6E
:104C80003FD114F4806F40D114F4006F41D114F47B
:104C9000805F42D114F4005F43D114F4804F44D1BB
:104CA00014F4004F45D116F0804F46D116F0020F94
:104CB00047D13648FBF710FBFEE7244B9B6A13F401
:104CC000004F02D0214B9F6B8DE74FF0FF378AE7F3
:104CD00039462F48FDF734FEBEE72E48FBF7FCFAB5
:104CE000C0E72D48FBF7F8FABFE72C48FBF7F4FACA
:104CF000BEE72B48FBF7F0FABDE72A48FBF7ECFAD2
:104D0000BCE72948FBF7E8FABBE72848FBF7E4FAD9
:104D1000BAE72748FBF7E0FAB9E72648FBF7DCFAE1
:104D2000B8E72548FBF7D8FAB7E72448FBF7D4FAE9
:104D3000B6E72348FBF7D0FAB5E72248FBF7CCFAF1
:104D4000B4E72148FBF7C8FAB3E700BF00ED00E085
:104D5000986B0008C06B0008D06B0008E06B00087F
:104D6000F06B0008006C0008106C0008206C000854
:104D7000306C0008B46C0008406C0008506C0008EF
:104D8000606C0008706C00089C6C0008406E0008A5
:104D9000806C0008B86C0008D86C0008F06C000843
:104DA000106D0008286D0008446D0008646D00084F
:104DB000886D0008AC6D0008CC6D0008E06D00083F
:104DC000F86D0008106E0008246E0008FEE7FEE78C
:104DD000FEE770477047704708B501F00BFB08BD50
:104DE0007047000008B50121074800F056FD00B9E2
:104DF00008BD0121044800F05CFD4FF40051034858
:104E000000F053F9F4E700BF00040040000802403E
:104E10007047000008B50F490F4800F097FE28B909
:104E20000E490D4800F092FE60B908BD09490A48D4
:104E300000F0BCFE0A4B01221A700A490A4800F031
:104E400057FAEDE70549044800F0B0FE0748FBF7C4
:104E500043FAEAE7208000101064024008200010A6
:104E60009D0300200002800000200140646E0008C5
:104E700008B54FF48371134800F042FA30B940F29C
:104E80000521104800F03CFAB0B908BD4FF4837119
:104E90000C4800F047FA0C4A13780133DBB2137068
:104EA000032B04D00021074800F022FAE7E7002195
:104EB000044800F01DFAF5E740F20521014800F032
:104EC00031FAE2E7002001409C03002008B501F020
:104ED00025FA08BD08B501F077FA08BD0120704732
:104EE00008B5FBF739FC162303604FF0FF3008BD0F
:104EF00008B54FF0FF31FFF7F3FFFEE770B50C4642
:104F00001646002506E0AFF30080214601F8010BAC
:104F100001350C46B542F6DB304670BD70B50C4627
:104F20001646002504E014F8010B01F0E9FB0135F9
:104F3000B542F8DB304670BD4FF0FF3070474FF49C
:104F400000534B60002070470120704700207047DD
:104F500010B503460C4A0D490D48006840B10C4895
:104F600000680344521A934206D8094A136010BDE0
:104F70000748084C0460F2E7FBF7EEFB0C230360E4
:104F80004FF0FF30F3E700BF0000022000040000F4
:104F9000A003002070060020C378FBB1154BDA682F
:104FA000D243C2F30222C2F10401C9B20F2313415A
:104FB00042788A40D2B281780B4013431B01DBB2A6
:104FC00002780D490A4482F80033037803F01F0089
:104FD0005B090122824041F823207047037803F0E7
:104FE0001F015B0901228A402033034941F8232035
:104FF000704700BF00ED00E000E100E000220F2A52
:105000004DD810B514E0C36894B264004FF0030E9D
:105010000EFA04FE23EA0E03C360C36891F807E0AA
:105020000EFA0CFC43EA0C03C36001320F2A35D898
:10503000012393400C68A343F7D104684FEA420C64
:10504000032303FA0CF36FEA030E24EA030303605D
:1050500003680C7904FA0CF4234303600B79013BD9
:10506000DBB2012BCFD883680EEA03038360836829
:105070004C7904FA0CF42343836043681FFA82FEE0
:10508000012404FA0EF423EA0403436044688B7994
:1050900003FA0EF39BB223434360B4E710BD70479D
:1050A00081617047090481617047436959404161DA
:1050B000704710B401F007039B009A40C9080831FB
:1050C00050F821404FF00F0C0CFA03F324EA0303CD
:1050D00040F8213050F82130134340F821305DF87A
:1050E000044B704710B4294B9B6803F00C03042B4E
:1050F00021D0082B22D0002B45D1254B0360234C17
:10510000A368C3F303132349CA5CD2B20368D34034
:105110004360A268C2F382228A5CD2B223FA02F20E
:105120008260A268C2F342328A5CD2B2D340C360CA
:105130005DF8044B7047184B0360E0E7134B596868
:105140005A6802F03F0211F4800F12D0124BB3FBE9
:10515000F2F30E4A5268C2F3881202FB03F30B4AC1
:105160005268C2F3014201325200B3FBF2F3036012
:10517000C5E7074BB3FBF2F3044A5268C2F3881247
:1051800002FB03F3EBE7024B0360B8E70038024091
:105190000024F400B06F000800127A0021B1054A23
:1051A000136B034313637047024A136B23EA000334
:1051B000136370470038024021B1054A136C034362
:1051C00013647047024A136C23EA000313647047A8
:1051D0000038024021B1054A536C034353647047C1
:1051E000024A536C23EA00035364704700380240BC
:1051F00030B585B004460D46038A9BB223F4405374
:10520000CA881343038283899BB223F4B05323F0EB
:105210000C03898828896A8901430A431343A381BF
:10522000A38A9BB223F44073AA891343A3826846DE
:10523000FFF758FF1F4B9C4205D003F580639C424B
:1052400001D0029B00E0039BA28912F4004F1FD102
:1052500003EB830303EB83032A689200B3FBF2F3AF
:10526000154AA2FB031252091101642002FB1033FC
:10527000A28912F4004F14D11B0132330E4AA2FB53
:105280000323C3F343130B439BB2238105B030BD0B
:1052900003EB830303EB83032A685200B3FBF2F3AF
:1052A000DEE7DB003233044AA2FB0323C3F34213DD
:1052B0000B43E9E7001001401F85EB5129B18389B9
:1052C0009BB243F400538381704783899BB223F4DC
:1052D00000539BB28381704722B1838A9BB20B43F8
:1052E00083827047838AC94389B21940818270479B
:1052F000436823F4400323F400730B434360704777
:1053000042685FFA81FC012303FA0CF31A40036838
:1053100013EA112302D01AB9002070470020704709
:10532000012070476FEA11210160704700B5B0F8A5
:1053300020C01FFA8CFC2CF0010C1FFA8CFCA0F88A
:1053400020C0B0F818E01FFA8EFEB0F820C01FFA97
:105350008CFC2EF0F30E1B019BB213434EEA030E9E
:105360002CF00A0C4CEA010C4CF0010CA0F818E0EF
:10537000A0F820C05DF804FB00B5B0F820C01FFA0B
:105380008CFC2CF0100C1FFA8CFCA0F820C0B0F89C
:1053900018E0B0F820C01FFA8CFC090189B22EF485
:1053A000407E4FEA0E5E4FEA1E5E1B039BB243EA4D
:1053B0000E03120292B21A432CF0A00C4CEA010C1C
:1053C0004CF0100C0283A0F820C05DF804FB00B57F
:1053D000B0F820C01FFA8CFC2CF4807C1FFA8CFCE7
:1053E000A0F820C0B0F81CE01FFA8EFEB0F820C074
:1053F0001FFA8CFC090289B22EF0F30E1B019BB23E
:1054000013434EEA030E2CF4206C4CEA010C4CF4CE
:10541000807CA0F81CE0A0F820C05DF804FB00B57B
:10542000B0F820C01FFA8CFC2CF4805C1FFA8CFCB6
:10543000A0F820C0B0F81CE0B0F820C0090389B281
:105440002EF4407E4FEA0E5E4FEA1E5E120292B2CA
:1054500042EA0E021B039BB213432CF4005C4FEA9A
:105460004C4C4FEA5C4C41EA0C0141F4805183837F
:1054700001845DF804FB000003889BB21B4A904244
:1054800012D002F5806290420ED0B0F1804F0BD066
:10549000A2F58032904207D002F58062904203D09C
:1054A00002F58062904203D123F070034A881343CF
:1054B0000F4A904208D002F58062904204D023F453
:1054C00040739BB20A89134303804B68C3620B8805
:1054D0000385064B984203D003F58063984201D1BF
:1054E0008B7A038601238382704700BF000001404E
:1054F00000100040406A704729B103889BB243F016
:1055000080030380704703889BB223F080039BB223
:105510000380704729B103889BB243F001030380E5
:10552000704703889BB223F001039BB2038070474E
:1055300010B5038C9BB223F001039BB20384B0F837
:1055400020C01FFA8CFCB0F804E01FFA8EFE028B1C
:1055500092B222F073020B881A432CF0020C8B8952
:105560004CEA030C4B8843EA0C030F4CA04203D0D7
:1055700004F58064A0420FD123F00803CC892343B3
:1055800023F004038C8823432EF4407E0C8A4EEAD9
:10559000040E4C8A44EA0E0EA0F804E002838A68E6
:1055A0004263038410BD00BF0000014000B5038CBE
:1055B0009BB223F010039BB20384028C92B2B0F82A
:1055C00004E01FFA8EFEB0F818C01FFA8CFC2CF411
:1055D000E64C0B881B029BB24CEA030C22F0200223
:1055E0008B891B019BB21A434B881B019BB213434F
:1055F000134A904203D002F58062904217D123F003
:105600008003CA89120192B2134323F040038A88AF
:10561000120192B213432EF4406E0A8A920092B2A3
:105620004EEA020E4A8A920092B242EA0E0EA0F8A8
:1056300004E0A0F818C08A68826303845DF804FB64
:105640000000014000B5038C9BB223F480739BB231
:105650000384028C92B2B0F804E01FFA8EFEB0F818
:105660001CC01FFA8CFC2CF0730C0B884CEA030C4A
:1056700022F400728B891B029BB21A434B881B02D7
:105680009BB21343134A904203D002F580629042CA
:1056900017D123F40063CA89120292B2134323F490
:1056A00080638A88120292B213432EF4405E0A8A03
:1056B000120192B24EEA020E4A8A120192B242EAF4
:1056C0000E0EA0F804E0A0F81CC08A68C263038430
:1056D0005DF804FB0000014010B5038C9BB223F47D
:1056E00080539BB20384B0F820C01FFA8CFCB0F842
:1056F00004E01FFA8EFE828B92B222F4E6420B88FF
:105700001B029BB21A432CF4005C8B891B039BB2D7
:105710004CEA030C4B881B039BB243EA0C030C4C72
:10572000A04203D004F58064A04209D12EF4804E3B
:10573000B1F810C04FEA8C1C1FFA8CFC4EEA0C0E1C
:10574000A0F804E082838A680264038410BD00BF6D
:1057500000000140038B9BB223F008030B4303833B
:105760007047038B9BB223F40063090289B20B4399
:1057700003837047838B9BB223F008030B4383831F
:105780007047838B9BB223F40063090289B20B43F9
:1057900083837047038B9BB223F00C039BB203837C
:1057A000038B9BB20B4303837047038B9BB223F4A1
:1057B00040639BB20383038B9BB2090289B20B4304
:1057C00003837047838B9BB223F00C039BB28383CC
:1057D000838B9BB20B4383837047838B9BB223F4F1
:1057E00040639BB28383838B9BB2090289B20B43D4
:1057F0008383704738B505460C460B886BB1042B84
:1058000015D0082B1DD00B898A884988FFF707FE21
:10581000E1882846FFF7E1FF38BD0B898A8849886F
:10582000FFF784FDE1882846FFF7B4FFF4E70B8912
:105830008A884988FFF7A0FDE1882846FFF7B5FF71
:10584000EAE70B898A884988FFF7C1FDE188284685
:10585000FFF7B8FFE0E749B1B0F844306FEA4343DF
:105860006FEA53439BB2A0F844307047B0F844301D
:10587000C3F30E03A0F84430704722B183899BB272
:105880000B43838170478389C94389B21940818161
:105890007047C94389B201827047028A83890B40ED
:1058A000114202D01BB90020704700207047012030
:1058B0007047C94389B20182704710B50489A4B208
:1058C000B0F818C01FFA8CFCB0F820E01FFA8EFE6A
:1058D00024F007040C432CF4407C2CF0030C4CF413
:1058E000807C4CF0010C2EF0220E1B019BB2134366
:1058F0004EEA030E0481A0F818C0A0F820E010BD05
:10590000036823F0010303600023036043608360A6
:10591000C3600361212343613C4B98422DD03C4B33
:1059200098422ED03B4B984230D03B4B984232D0DD
:105930003A4B984234D03A4B984235D0394B984242
:1059400036D0394B984237D0384B984239D0384B03
:1059500098423AD0374B98423CD0374B98423ED091
:10596000364B984240D0364B984241D0354B984206
:1059700042D0354B984243D07047103B3D229A604D
:105980007047283B4FF474629A607047403B4FF475
:1059900074129A607047583B4FF074629A60704777
:1059A000703B2A4ADA607047883B294ADA607047C0
:1059B000A03B284ADA607047B83B4FF03D52DA60AE
:1059C0007047103B3D229A607047283B4FF4746249
:1059D0009A607047403B4FF474129A607047583B8E
:1059E0004FF074629A607047703B184ADA607047F3
:1059F000883B174ADA607047A03B164ADA60704766
:105A0000B83B4FF03D52DA60B6E700BF106002408D
:105A100028600240406002405860024070600240CE
:105A200088600240A0600240B860024010640240FA
:105A3000286402404064024058640240706402409E
:105A400088640240A0640240B86402403D00002027
:105A5000400F002000003D2010B40368134A1A4094
:105A60000B68CC6823434C6923438C692343CC697E
:105A700023430C6A23434C6A23438C6A23434C6BB5
:105A800023438C6B234313430360426922F00702D4
:105A9000CB6A0C6B2343134343610B6943604B6830
:105AA00083608B68C3605DF8044B70473F801CF0D7
:105AB00021B1036843F0010303607047036823F0DA
:105AC00001030360704741607047036813F0010FE2
:105AD00001D0012070470020704700000A4B984217
:105AE0000AD8A3F20F4311F0005F07D021F0F02194
:105AF00021F08211D9607047044BF4E721F0F021C6
:105B000021F08211996070470F64024000640240E6
